{
  "abi": [
    {
      "type": "constructor",
      "inputs": [],
      "stateMutability": "nonpayable"
    },
    {
      "type": "function",
      "name": "deposit",
      "inputs": [
        {
          "name": "_amount",
          "type": "uint256",
          "internalType": "uint256"
        }
      ],
      "outputs": [],
      "stateMutability": "payable"
    },
    {
      "type": "function",
      "name": "getBalance",
      "inputs": [],
      "outputs": [
        {
          "name": "",
          "type": "uint256",
          "internalType": "uint256"
        }
      ],
      "stateMutability": "view"
    },
    {
      "type": "function",
      "name": "owner",
      "inputs": [],
      "outputs": [
        {
          "name": "",
          "type": "address",
          "internalType": "address"
        }
      ],
      "stateMutability": "view"
    },
    {
      "type": "function",
      "name": "widtdraw",
      "inputs": [
        {
          "name": "_amount",
          "type": "uint256",
          "internalType": "uint256"
        }
      ],
      "outputs": [],
      "stateMutability": "nonpayable"
    },
    {
      "type": "event",
      "name": "Deposit",
      "inputs": [
        {
          "name": "sender",
          "type": "address",
          "indexed": true,
          "internalType": "address"
        },
        {
          "name": "amount",
          "type": "uint256",
          "indexed": false,
          "internalType": "uint256"
        }
      ],
      "anonymous": false
    },
    {
      "type": "event",
      "name": "Withdraw",
      "inputs": [
        {
          "name": "reciever",
          "type": "address",
          "indexed": true,
          "internalType": "address"
        },
        {
          "name": "amount",
          "type": "uint256",
          "indexed": false,
          "internalType": "uint256"
        }
      ],
      "anonymous": false
    }
  ],
  "bytecode": {
    "object": "0x6080604052348015600e575f5ffd5b505f80546001600160a01b0319163317905561026c8061002d5f395ff3fe60806040526004361061003e575f3560e01c806312065fe0146100425780638da5cb5b1461006157806392f4672f14610097578063b6b55f25146100b8575b5f5ffd5b34801561004d575f5ffd5b506040514781526020015b60405180910390f35b34801561006c575f5ffd5b505f5461007f906001600160a01b031681565b6040516001600160a01b039091168152602001610058565b3480156100a2575f5ffd5b506100b66100b136600461021f565b6100cb565b005b6100b66100c636600461021f565b6101e7565b5f546001600160a01b031633146101195760405162461bcd60e51b815260206004820152600d60248201526c26bab9ba1031329037bbb732b960991b60448201526064015b60405180910390fd5b804710156101605760405162461bcd60e51b8152602060048201526014602482015273496e73756666696369656e742062616c616e636560601b6044820152606401610110565b6040515f90339047908381818185875af1925050503d805f811461019f576040519150601f19603f3d011682016040523d82523d5f602084013e6101a4565b606091505b50509050806101e35760405162461bcd60e51b815260206004820152600b60248201526a10d85b1b0811985a5b195960aa1b6044820152606401610110565b5050565b60405181815233907fe1fffcc4923d04b559f4d29a8bfc6cda04eb5b0d3c460751c2402c5c5cc9109c9060200160405180910390a250565b5f6020828403121561022f575f5ffd5b503591905056fea2646970667358221220c57e0e54f36b6bf010dadcb60c4cae5c54e0073651d4d381104931df9a7535f564736f6c634300081c0033",
    "linkReferences": {}
  },
  "methodIdentifiers": {
    "deposit(uint256)": "b6b55f25",
    "getBalance()": "12065fe0",
    "owner()": "8da5cb5b",
    "widtdraw(uint256)": "92f4672f"
  },
  "id": 20
}